{
  "contractName": "Votacion",
  "abi": [
    {
      "constant": true,
      "inputs": [
        {
          "internalType": "address",
          "name": "",
          "type": "address"
        }
      ],
      "name": "haVotado",
      "outputs": [
        {
          "internalType": "bool",
          "name": "",
          "type": "bool"
        }
      ],
      "payable": false,
      "stateMutability": "view",
      "type": "function"
    },
    {
      "constant": true,
      "inputs": [
        {
          "internalType": "uint256",
          "name": "",
          "type": "uint256"
        }
      ],
      "name": "votos",
      "outputs": [
        {
          "internalType": "address",
          "name": "votante",
          "type": "address"
        },
        {
          "internalType": "uint256",
          "name": "candidato",
          "type": "uint256"
        }
      ],
      "payable": false,
      "stateMutability": "view",
      "type": "function"
    },
    {
      "constant": false,
      "inputs": [
        {
          "internalType": "uint256",
          "name": "_candidato",
          "type": "uint256"
        }
      ],
      "name": "votar",
      "outputs": [],
      "payable": false,
      "stateMutability": "nonpayable",
      "type": "function"
    },
    {
      "constant": true,
      "inputs": [],
      "name": "totalVotos",
      "outputs": [
        {
          "internalType": "uint256",
          "name": "",
          "type": "uint256"
        }
      ],
      "payable": false,
      "stateMutability": "view",
      "type": "function"
    }
  ],
  "bytecode": "0x608060405234801561001057600080fd5b506103e6806100206000396000f3fe608060405234801561001057600080fd5b506004361061004c5760003560e01c80632160683114610051578063355062cb1461007f57806370e36064146100db578063b2731f0e146100f9575b600080fd5b61007d6004803603602081101561006757600080fd5b810190808035906020019092919050505061016e565b005b6100c16004803603602081101561009557600080fd5b81019080803573ffffffffffffffffffffffffffffffffffffffff169060200190929190505050610334565b604051808215151515815260200191505060405180910390f35b6100e3610354565b6040518082815260200191505060405180910390f35b6101256004803603602081101561010f57600080fd5b8101908080359060200190929190505050610360565b604051808373ffffffffffffffffffffffffffffffffffffffff1673ffffffffffffffffffffffffffffffffffffffff1681526020018281526020019250505060405180910390f35b600160003373ffffffffffffffffffffffffffffffffffffffff1673ffffffffffffffffffffffffffffffffffffffff16815260200190815260200160002060009054906101000a900460ff161561022e576040517f08c379a000000000000000000000000000000000000000000000000000000000815260040180806020018281038252600b8152602001807f596120766f74617374652e00000000000000000000000000000000000000000081525060200191505060405180910390fd5b600060405180604001604052803373ffffffffffffffffffffffffffffffffffffffff168152602001838152509080600181540180825580915050906001820390600052602060002090600202016000909192909190915060008201518160000160006101000a81548173ffffffffffffffffffffffffffffffffffffffff021916908373ffffffffffffffffffffffffffffffffffffffff1602179055506020820151816001015550505060018060003373ffffffffffffffffffffffffffffffffffffffff1673ffffffffffffffffffffffffffffffffffffffff16815260200190815260200160002060006101000a81548160ff02191690831515021790555050565b60016020528060005260406000206000915054906101000a900460ff1681565b60008080549050905090565b6000818154811061036d57fe5b90600052602060002090600202016000915090508060000160009054906101000a900473ffffffffffffffffffffffffffffffffffffffff1690806001015490508256fea265627a7a72315820d9df7e7cb41eb9e474ae18cad1437b85e67a563fb4ed2066e18827c019c7f82d64736f6c63430005100032",
  "source": "// SPDX-License-Identifier: MIT\r\npragma solidity ^0.5.16;\r\n\r\ncontract Votacion {\r\n    struct Voto {\r\n        address votante;\r\n        uint candidato;\r\n    }\r\n\r\n    Voto[] public votos;\r\n    mapping(address => bool) public haVotado;\r\n\r\n    function votar(uint _candidato) public {\r\n        require(!haVotado[msg.sender], \"Ya votaste.\");\r\n        votos.push(Voto(msg.sender, _candidato));\r\n        haVotado[msg.sender] = true;\r\n    }\r\n\r\n    function totalVotos() public view returns (uint) {\r\n        return votos.length;\r\n    }\r\n}\r\n",
  "sourcePath": "C:\\Users\\roxan\\Downloads\\KeyTweak\\votacionelectronica\\contracts\\Votacion.sol",
  "compiler": {
    "name": "solc",
    "version": "0.5.16+commit.9c3226ce.Emscripten.clang"
  },
  "schemaVersion": "3.4.16",
  "updatedAt": "2025-07-11T01:51:02.926Z",
  "networkType": "ethereum",
  "devdoc": {
    "methods": {}
  },
  "userdoc": {
    "methods": {}
  }
}